:100000000C942A000C9434000C9434000C943400AA
:100010000C9434000C9434000C9434000C94340090
:100020000C9434000C9434000C9434000C94340080
:100030000C9434000C9434000C9434000C94340070
:100040000C9434000C9434000C9434000C94340060
:100050000C94340011241FBECFE5D8E0DEBFCDBF25
:100060000E9461000C947F000C94000084B38F60A8
:1000700084BB089585B3857F85BB85B3856085BBCB
:10008000089585B38A7F85BB85B38A6085BB089553
:10009000089508950895089583B78B6683BF85B545
:1000A0008B6685BDBB9A8F9A08958C3611F46CBF10
:1000B0000895823709F463BD089585B3807F85BBB9
:1000C00008950E9436000E944C00CFEFCCBFC3BD04
:1000D0000E943A002FEF84E39CE021508040904042
:1000E000E1F700C000000E9441002FEF84E39CE094
:1000F000215080409040E1F700C00000E7CFF89425
:02010000FFCF2F
:00000001FF
